S00C00004F4C45442E73726563F4
S11300000C948E030C94AB030C94AB030C94AB03D1
S11300100C94AB030C94AB030C94AB030C94AB03A4
S11300200C94AB030C94AB030C94AB030C94AB0394
S11300300C94AB030C94AB030C94AB030C94AB0384
S11300400C94AB030C94AB030C94AB030C94AB0374
S11300500C94AB030C94AB030C94AB030C94AB0364
S11300600C94AB030C94AB03BF000202030403041F
S113007004050800FF06FF0600011A023106962057
S113008005007E032107316333520022079B6E93E0
S1130090AC00230D3D6257A6345435549912002404
S11300A00A3D629B57BD53DA112508AB66135367AB
S11300B000260A3C621753B36AA6002705196F335A
S11300C02807B262A79A012908B2621353A5002A2D
S11300D00A2C6213931A49C5002B0A2D629B511CEA
S11300E032A3082C079B5EA74A002D060C6A330234
S11300F02E079B5E9756022F0834625FB63300309A
S113010008B36257B92A003107B36297646B320AA5
S11301103462A7624E2A8F00330A34623362D448B1
S11301202605340A34621B5535624E00350A3462A2
S113013033F446322900360A3462A7F28A3229009F
S1130140370A34623372CC314700380A3462A7620A
S113015052512605390A3462A7A24C3B29003A07BA
S1130160AA6233E2083B08B35E672355023C07B337
S1130170629BCA5C3D081C6633321A013E08B362B6
S113018093CB54023F09B362D74C192600400C4567
S11301905E2BA35C492559430541093462A7A21C7F
S11301A05306420A3462B3E248518E04430934626E
S11301B0A7A22E930244093462B3A2732400450912
S11301C0346233F4CA79044609346233F4CA35001C
S11301D0470A3462A7A24E3329004809346213E562
S11301E09866004907B362B3626B4A093462377395
S11301F05546004B093462135592A9334C083462B6
S113020093BB47004D09346213C711CD004E093426
S11302106213D75867004F093462A7A233290050EC
S11302200A3462B3A21C29670051093C5EA7A25C90
S11302306E14520A3462B3A21C29CA00530A3462EF
S1130240A762CAA84C0A5408B362B36217005508DF
S11302503462133D930256093462139D492A0057B0
S113026009346213CD71C400580A34621365922AAA
S1130270CA00590B35629375AA33CA28025A093445
S11302806233726C8F005B07B3623362735C0A344F
S1130290629333CA28A31C5D07B362339B235E06B3
S11302A09372D7005F060C5E3302600692721303EA
S11302B06108246237A24C03620A346293F38A729F
S11302C024006307A36237B300640934625F8D2896
S11302D0D30065082462A7D2C80A660934625B9514
S11302E033470067092C5EA762DA49016809346262
S11302F093F38A66006908B3629791AC066A09BBF6
S11303005E9B61A92A006B09346293CB91A20C6CA9
S113031007B36223BB066D092562A35A2AA9026E9C
S1130320072462B3A2196F082462A7A24C0A7009B9
S11303302C5EB3E248390371082C5E3762DA057229
S113034008246293929D017307A36237F202740A30
S1130350346297E3CC2926007507246213CD3476E2
S113036007A36293AC0A770925629355525D00781E
S113037008246213935431790A2C5E13651A3129C7
S1130380007A082462336239027B0B3C62AB324A46
S11303901AC58C047C053163737D0C3C62A351CC7B
S11303A048659424007E071472975402A005007EC9
S11303B003A1073163934600A209345E1B476ACE4A
S11303C004A30A34625B8D98934A00A40A2D6293B5
S11303D0D34C71E500A50B3562935335641C32028E
S11303E0A6063963B306A70A3C6237F28A698F040A
S11303F0A8068B769302A90A3562B7AA3955B500C7
S1130400AA07AB6AB7921EAB081C6697544C01ACA2
S1130410069B62330BAD058B6A33AE093562F7A1D7
S1130420965A00AF058B7633B0069B6ED705B1089C
S1130430AB6297564603B207AB6AD74C69B307ABB6
S11304406AA32F00B4069272A700B5092C5E13CDDF
S1130450913200B60C356237461A29A998620AB758
S113046005096B13B806925EA700B907AB6A9764D7
S113047035BA07AB6AD78D06BB081C66936252096E
S1130480BC0A3C62935B518D9800BD0A3C6293ABFD
S1130490A4728C03BE0C3C629351CC4855232600B5
S11304A0BF09B36297618AA902C00A3C629751549A
S11304B0714C19C1093C625BAB38A60CC20A3C62A0
S11304C0A76252714C19C30A3C62975454714C1977
S11304D0C40A3C62133354714C19C50A3C62A762C6
S11304E052714C19C609346237526BA84AC70A3C88
S11304F05EA7A22E938C00C80A3C6297511A7AE533
S113050011C9093C625B0EBDF208CA0A3C62A7E24B
S1130510D82B8F00CB0A3C6213331A7AE511CC092D
S1130520BB6293D38AD500CD09BB629BD28AD50026
S1130530CE09BB62578D14AB01CF09BB6293F28A1B
S1130540D500D00B356237E348658A6901D10A3C8E
S1130550629754B9D49401D20A3C62975154D14C55
S11305600AD3093C625BAB682605D40A3C62A762E5
S113057052D14C0AD50A3C62975454D14C0AD60A3B
S11305803C62133354D14C0AD7069B62933AD80980
S1130590346237D2918E04D9093C629751E94C0AEE
S11305A0DA083C62DB742605DB093C62A7A26752C9
S11305B000DC0A3C6213338ACEA400DD0B3D625F8B
S11305C0E65467945104DE0A346293579423650019
S11305D0DF093462A7A2EA5409E00A3C629751C6D3
S11305E023CA34E1093C625B5323CA34E20A3C6205
S11305F05B6538A24C03E30A3C629754C623CA34B1
S1130600E409346257C311651AE50A3C62A7629291
S113061023CA34E609256233A2324700E708AB5EF9
S113062037B34A00E80B3C629751C62A8DAC00E907
S11306300A3C625B532A8DAC00EA0B3C62A76286DB
S11306402A8DAC00EB0A3462574395465600EC09F8
S1130650BB62933392D500ED09BB629B3292D50005
S1130660EE08BB62D796D500EF08B36293B2AC062E
S1130670F00C3C62936295511A312900F10A3C62F4
S11306809754862B9A01F20B3C629751C62ACAA44E
S113069000F30A3C625B532ACAA400F40B3C62A731
S11306A062862ACAA400F50B3C629754C62ACAA4DF
S11306B000F60A3462133354512605F708AB6297E7
S11306C0D14609F809246237D2482301F90A3C6269
S11306D0975186D14C03FA093C625BE368A601FB9F
S11306E00A3C62A76246D14C03FC09346213338A84
S11306F0661AFD0B445E5BE328D3884901FE0A3C7D
S11307005E93F38A23E50CFF0C3C5E13338A328D2F
S113071098140000000004FFFF00000011241FBE15
S1130720CFEFD8E0DEBFCDBF11E0A0E0B1E0E6E45A
S1130730F7E202C005900D92AA39B107D9F726E075
S1130740AAE9B1E001C01D92A131B207E1F70E940C
S11307508E100C94A1130C940000ECE7F0E080815F
S113076083648083EAE7F0E080818768808308956A
S1130770EAE7F0E080818064808380917A0086FDDE
S1130780FCCF809178009091790008950F931F9386
S1130790DC01ED91FC911197208992960D911C91A9
S11307A09397629FB0011124660F771F660F771F1E
S11307B0660F771F060F171F60E00E94440D1F91FC
S11307C00F910895EF92FF920F931F93CF93DF93AE
S11307D08C01DC019496FC9094979596DC91959706
S11307E0ED91FC91E188C0E04D2F6C2FC8010E946F
S11307F0C603CF5FDF5FCF1510F4DE15A8F3DF91DA
S1130800CF911F910F91FF90EF900895FC01A0816B
S1130810B18150969C9144A1949FA0011124440F4E
S1130820551F440F551F440F551F60E070E082A10F
S113083093A10E9465130895CF93DF93EC010E9466
S1130840E203CE010E94880DDF91CF91089528E044
S1130850FC0120838AE991E00895CF92DF92EF9220
S1130860FF920F931F93CF93DF931F92CDB7DEB701
S11308707C016B0189019A014BE85CE06CE17EE04C
S11308800E94610ECE0101960E942704860124E491
S11308903AE04981BC01C7010E94780B0F90DF91B7
S11308A0CF911F910F91FF90EF90DF90CF9008951B
S11308B0860F911DFC0184910895FC01E60FF11D42
S11308C0849190E03196982F8827E4918E0F911DA2
S11308D0089580E090E0089580599F4FFC01808145
S11308E0082E000C990B019608950F931F93CF9334
S11308F0DF93EC018B0160E0C8010E9458048883F7
S113090061E0C8010E945804898362E0C8010E9422
S113091058048A8363E0C8010E9458048B8364E00E
S1130920C8010E9458048C8365E0C8010E945804E1
S11309308D8366E0C8010E9458048E8367E0C80175
S11309400E9458048F8368E0C8010E945804888775
S113095069E0C8010E94580489876AE0C8010E94BE
S113096058048A876BE0C8010E9458048B876CE0A6
S1130970C8010E9458048C876DE0C8010E94580485
S11309808D876EE0C8010E9458048E876FE0C8010D
S11309900E9458048F8760E1C8010E945804888B24
S11309A061E1C8010E945D049A8B898B63E1C801EF
S11309B00E945D049C8B8B8B65E1C8010E945D04E1
S11309C09E8B8D8BDF91CF911F910F910895DC0148
S11309D01A964C911A97ED91FC911197249130E05D
S11309E0042E02C0359527950A94E2F7822F942F9E
S11309F0960F983080F088E0841B31961196FC9312
S1130A00EE93E491F0E002C0EE0FFF1F8A95E2F747
S1130A108E2F822B985021E030E002C0220F331F2A
S1130A206A95E2F721501A969C93822308950F93B6
S1130A301F93CF93DF93EC018C01085B1F4FF801E8
S1130A4071836083128673966081C8010E94E704F3
S1130A50F801808774966081C8010E94E704F80158
S1130A608187BC968081F801848791E0811190E0B0
S1130A70C85BDF4F9D87DF91CF911F910F91089540
S1130A80CF93C62F0E94E704C15021E030E002C09A
S1130A90220F331FCA95E2F7821BCF9108952130AC
S1130AA049F018F0223059F00FC0840F911D47FD12
S1130AB09A950895860F911D67FD9A950895841B54
S1130AC0910947FD93950895861B910967FD9395B8
S1130AD00895213049F018F0223059F00FC0860FE4
S1130AE0911D67FD9A950895841B910947FD93957F
S1130AF00895861B910967FD93950895840F911DB0
S1130B0047FD9A9508956F927F928F929F92AF922C
S1130B10BF92CF92DF92EF92FF920F931F93CF93E6
S1130B20DF937C01162F742EFC01E85BFF4F968047
S1130B30D781F701E85BFF4FC085C9191C1710F076
S1130B406C2E01C0612EF701E85BFF4FC480D58095
S1130B5006858D2E202F4D2F692D828193810E9431
S1130B6069055C01202F4D2F692DC6010E944F0598
S1130B70772071F0F701E85BFF4F2485BC96208352
S1130B80262D30E0AC01B501C7010E94C10810C098
S1130B90F701E85BFF4F238521110AC02585BC9628
S1130BA02083262D30E0AC01B501C7010E94C108A5
S1130BB01C1720F01C1BDF5F912CBBCF612F690D2C
S1130BC0F701E85BFF4F66838782DF91CF911F9126
S1130BD00F91FF90EF90DF90CF90BF90AF909F90D8
S1130BE08F907F906F9008956F927F928F929F92D3
S1130BF0AF92BF92CF92DF92EF92FF920F931F9327
S1130C00CF93DF93EC017C0188E4E80EF11CCE0164
S1130C100E941705FE01EF5AFF4FC0803C96608189
S1130C20C7010E944005782EFE01E25AFF4F608101
S1130C30C7010E944005182FFE01E15AFF4F608151
S1130C40C7010E944005D82EF701608416140CF0E9
S1130C509BC006851C0D1195202F412F672D828185
S1130C6093810E9469055C01F70193838283202F9D
S1130C70412F672D848195810E944F05F70195834B
S1130C808483013089F028F0023001F10330A1F1AE
S1130C9043C09501260D311D67FC3A958C010C0D5E
S1130CA0111DC7FC1A953AC0A5014C195109C7FC7E
S1130CB0539595012F5F3F4F8C01060D111D67FC65
S1130CC01A95BA016F5F7F4F5B0128C0A5014619D1
S1130CD0510967FC539595012F5F3F4FBC016C1977
S1130CE07109C7FC73958C010F5F1F4FCB010196EF
S1130CF0FA0131965F0112C095012C0D311DC7FC1C
S1130D003A95AC014619510967FC53958C010F5F64
S1130D101F4FCA01019602C08C019501AC01B501B7
S1130D20CE010E949309882379F1FE01E85BFF4F0D
S1130D3016821782FE01E75AFF4F6081C7010E94A5
S1130D40E704082FFE01E65AFF4F6081C7010E94A5
S1130D50E704182F40E0602FCE010E94830541E094
S1130D60612FCE010E94830561E0C7010E94E70460
S1130D708111F0CFFE01E85BFF4F87818C15D4F21F
S1130D808485CC58DF4F88838D2DDF91CF911F91BF
S1130D900F91FF90EF90DF90CF90BF90AF909F9016
S1130DA08F907F906F900895EF92FF920F931F930F
S1130DB0CF93DF93FC01EC5BFF4FC081D181679639
S1130DC06F3F710509F038F56136710530F0B6965C
S1130DD080819181C80FD91F0AC06134710538F030
S1130DE0FC01E859FF4F80819181C80FD91FCE01C2
S1130DF00196FC012491222309F43CC0FE012491B4
S1130E0030E06217730711F4019639C0FC01849134
S1130E10C80FD11DECCF8B01FC01E459FF4F808139
S1130E209181C80FD91F7E0160E0C7010E945D0453
S1130E30C80FD91F62E0C7010E945D04F4E0EF0E01
S1130E40F11C8017910780F3FE01849190E0982FA4
S1130E5088273196E4918E2B009779F008171907AB
S1130E6019F4CE0103960BC0FE013296E491CE0F25
S1130E70D11DEACF80E090E002C080E090E0DF91F5
S1130E80CF911F910F91FF90EF900895CF93DF932F
S1130E90EC01FC01E65BFF4F718360833296518362
S1130EA04083B9010E94D406009741F0BC01CE01F1
S1130EB00E94F405082E000C990B02C080E090E01B
S1130EC0DF91CF910895CF92DF92EF92FF920F932B
S1130ED01F93CF93DF93EC018B017A016901FC012D
S1130EE0EA5AFF4F8081813089F028F08230C9F0BE
S1130EF0833011F12BC0FE01EA5BFF4F0190F081BA
S1130F00E02DCE010995E80EF91E20C0FE01EA5B32
S1130F10FF4F0190F081E02DCE010995081B190BBC
S1130F2015C0FE01EA5BFF4F0190F081E02DCE0178
S1130F300995E81AF90A0AC0FE01EA5BFF4F01901D
S1130F40F081E02DCE010995080F191F9601A70124
S1130F50B801CE010E944607DF91CF911F910F91F6
S1130F60FF90EF90DF90CF900895AF92BF92CF9211
S1130F70DF92EF92FF920F931F93CF93DF93EC01D5
S1130F805B016A0189010E94B50BE12CF12CEA8115
S1130F90FB81D8016C91CE0109958F3FBFEF9B0770
S1130FA039F10F5F1F4F8E3F2FEF920781F39C01A2
S1130FB0A601B501CE010E9463079C01FE01EA5A15
S1130FC0FF4F9081913049F028F0923049F09330EE
S1130FD051F00BC0A20EB31E08C0C20ED31E05C032
S1130FE0A21AB30A02C0C21AD30AE20EF31ECFCF6A
S1130FF0C701DF91CF911F910F91FF90EF90DF9088
S1131000CF90BF90AF900895E8EAFBE0DC0113961F
S1131010FC93EE9312970E94B5070895FC01EC5BD4
S1131020FF4F20813181232BE1F1B09620813C9642
S113103020833B9740813C96408332973081332311
S113104081F1313079F439973081231714F43A96C9
S11310503083FC01E959FF4F2081241714F53A9697
S113106020830895022E000C330BFC01EF59FF4F2F
S1131070E081DC01AD59BF4F5C91652F052E000C5A
S1131080770B6E0F711DE7FD7A95261737071CF451
S11310901D96E50FEC93541724F4FC01EF58FF4F11
S11310A050830895FC01E159FF4F10820E940E08FD
S11310B008958A5B9F4F29E634E0FC013183208345
S11310C008958A5B9F4F2CE634E0FC013183208332
S11310D00895CF93DF93FC01EC5BFF4F20813181B6
S11310E02617370751F0EC0171836083895A9F4FAB
S11310F00E947504CE010E940E08DF91CF910895DD
S1131100CF93DF93EC01A881B981EB01E881F981E8
S1131110EA0FFB1FEA17FB0738F4A217B30718F40A
S1131120F901319701C0DA01A217B307A8F44E17E9
S11311305F07A0F4A417B50708F0AD012E173F0709
S113114008F09F01FC0151834083241B350BEB0104
S11311503983288381E003C080E001C080E0DF910F
S1131160CF9108950F93DC019A96ED91FC919B9792
S11311704E1B5F0B5E96ED91FC915F9709950F9165
S11311800895EF92FF920F931F93CF93DF9300D0B4
S113119000D000D0CDB7DEB77A8369835C834B83FC
S11311A03E832D83FC01E259FF4F2081222309F461
S11311B074C02D813E812115310509F46EC02230A1
S11311C03105B0F0023041F4621B730B9B012F5FB9
S11311D03F4F3A8329830CC0033051F44B815C8127
S11311E0DA01A21BB30B9D012F5F3F4F3C832B837E
S11311F07C01102F117000FD1DC0FC0120AD31AD2C
S11312008B819C818217930708F447C022AD33ADCC
S11312108217930708F041C026A937A944A955A904
S1131220BE016B5F7F4FCE0101960E948008811141
S113123023C033C0DC01D4962D913C91D59789818C
S11312409A818217930748F1D6962D913C91D797AE
S11312508217930710F5DA962D913C91DB97D89677
S11312604D915C91D997BE016B5F7F4FCE01039680
S11312700E948008882389F0D7019096ED91FC9113
S113128091970480F581E02D2D813E814B815C8115
S113129069817A81012FC701099526960FB6F894C2
S11312A0DEBF0FBECDBFDF91CF911F910F91FF9095
S11312B0EF9008950F93FC0180AD91AD4817590745
S11312C0A8F082AD93AD4817590780F484A995A975
S11312D06817790758F086A997A96817790730F431
S11312E0CF0100E021E030E00E94C1080F91089591
S11312F04617570740F48217930768F024173507F9
S113130060F481E008958217930748F424173507A1
S113131040F481E0089581E0089580E0089580E03C
S1131320089580E00895CF92DF92EF92FF920F9399
S11313301F93CF93DF93EC017B01690198016AADA0
S11313407BAD88AD99AD0E947809882341F06EA9E0
S11313507FA99601A7018CA99DA90E947809DF9114
S1131360CF911F910F91FF90EF90DF90CF90089550
S11313703F924F925F926F927F928F929F92AF9221
S1131380BF92CF92DF92EF92FF920F931F93CF936E
S1131390DF933C01EB016A0159012617370720F45A
S11313A04B01821A930A03C04901861A970A0C1545
S11313B01D0520F42601401A510A03C028014C18C7
S11313C05D088414950438F0942D852D2401892E0C
S11313D0982E312C0CC09A2D8B2D5801092F182FC3
S11313E09C2F8D2FE601C92ED82E33243394AC16AE
S11313F0BD0650F49C2D8D2D6801092F182F9C2FAC
S11314008D2FE501A92EB82E7201F694E794C0162B
S1131410D10618F401E010E002C00FEF1FEF8FEFC8
S1131420A816B806E1F481E0A81AB10818C0311072
S113143006C0A601BE01C3010E945A0905C0AE013F
S1131440B601C3010E945A09C701881999097C0190
S11314502AF4C00ED11E7201E80EF91E2196AC16B4
S1131460BD0628F7DF91CF911F910F91FF90EF9068
S1131470DF90CF90BF90AF909F908F907F906F90B0
S11314805F904F903F9008950F931F93CF93DF93F6
S1131490DC01CA01542F5770C1E0D0E0052E02C010
S11314A0CC0FDD1F0A94E2F71C2FFD01EC58FF4F0F
S11314B0E081E23010F040E001C04C2FE13009F44B
S11314C010E0887FED91FC911197C089C89FF001CD
S11314D0C99FF00D112492968D919C9193976E0F54
S11314E07F1FFC01E60FF71F011108C08081842BC8
S11314F08127819321503109C9F721C09081942B10
S1131500912790835F5F577021503109511110C0AA
S113151096968D919C919797E80FF91FED01CC5801
S1131520DF4F8881823008F441E0813021F404C027
S1131530440F110F01C011E021153105F9F6DF91B7
S1131540CF911F910F910895CF93DF93FC01A08158
S1131550B18184A190E09C01220F331F220F331F1D
S1131560220F331F31A720A750962C91509730E0BB
S1131570220F331F220F331F220F331F37A326A33B
S113158075A1272F30E0A901440F551F440F551FA3
S1131590440F551F53A742A7280F391F51966C912A
S11315A05197C62FD0E0C217D30718F4CE01871B7A
S11315B09109880F991F880F991F880F991F55A7A4
S11315C044A7840F951F97A786A754968D919C9145
S11315D0559791AB80AB56968D919C91579793AB51
S11315E082ABDF91CF9108950E94A40A08950F93CE
S11315F01F93CF93DF93EC01FC01EE5BFF4F00815F
S113160011812EAD3FAD3297408151816CAD7DADDE
S11316100E949309811104C0C259DF4F18822FC060
S113162081E0FE01E259FF4F80832CA93DA98CADD6
S11316309DAD2817390710F49DAB8CAB2EA93FA99B
S11316408EAD9FAD8217930710F49FAB8EAB28AD80
S113165039ADFE01E05CFF4F808191812817390785
S113166010F499AF88AF2AAD3BADFE01EE5BFF4F9E
S1131670808191818217930710F49BAF8AAFDF9129
S1131680CF911F910F910895FC0115AA14AA80A966
S113169091A997AB86AB84A595A591AF80AF86A59C
S11316A097A593AF82AFCF010E94F70A08950F93D5
S11316B00E94B2080F910895DC01DD961C921E92DF
S11316C0DC97FC01E05CFF4F118210822FEF3FEFAB
S11316D0FC0137AF26AFEE5BFF4F3183208390963A
S11316E0ED91FC9191970280F381E02D0995089585
S11316F00F931F93CF93DF93EC01FC01EC5BFF4F3F
S1131700118210823F8F2E8F7BA36AA34CA31DA24C
S11317103F961082B096108234971082359681E0FD
S113172080833196808319A308A3D801ED91FC919D
S1131730CE010995CE010E945C0BCE010E9459088E
S1131740CA5ADF4F1882DF91CF911F910F910895EC
S1131750662329F06A3031F0862F90E008958FEFE8
S11317609FEF08958FEF9FEF0895FC01108E089569
S11317709A01DC011896ED91FC911997462F67E1C7
S113178009950895CF93DF931F92CDB7DEB7698390
S1131790AE014F5F5F4F61E00E94B80B0F90DF9185
S11317A0CF910895DC011896ED91FC91199720E0F2
S11317B030E040E068E109950895DC011896ED9168
S11317C0FC91199720E030E040E069E10995089523
S11317D0EF92FF921F93CF93DF93EC01162F7A01C0
S11317E00E94D20B60E4CE010E94C20BE885F98509
S11317F09701412F67E1CE010995CE010E94DD0BCF
S1131800DF91CF911F91FF90EF900895462FDC0157
S11318101696ED91FC91179720E030E065E109956B
S11318200895462FDC011696ED91FC91179720E060
S113183030E066E1099508959A01DC011696ED9170
S1131840FC911797462F67E109950895DC011696D8
S1131850ED91FC91179720E030E040E068E10995B4
S11318600895DC011696ED91FC91179720E030E085
S113187040E069E109950895EF92FF920F931F9359
S1131880CF93DF931F92CDB7DEB77C018B01D801D4
S11318906D918D016731B9F018F4653130F433C0BE
S11318A06A31E8F06E3F31F12EC0FD0141918F01A4
S11318B04983D7011696ED91FC91179720E030E00B
S11318C0C7010995E4CFFD0181918F018983AE01A0
S11318D04F5F5F4F61E0C7010E941C0CD8CFD70156
S11318E01696ED91FC91179720E030E040E0C70197
S11318F00995CDCFFD0141918F01498369E2C7016B
S11319000E943F0EC4CF0F90DF91CF911F910F9192
S1131910FF90EF900895EF92FF920F931F93CF9350
S11319207C01C42F8901663129F130F4643109F452
S113193041C0653149F060C0683109F44EC0F8F027
S1131940693109F44EC058C080919A05882319F072
S1131950C7010E94DD0BC7010E94D20B60E0C701E2
S11319600E94C20B6C2FC7010E94C20B81E08093BE
S11319709A0543C0642F0E94C20B81E03EC080914F
S11319809A05882361F0C7010E94DD0B08C0A801F5
S113199068E1C7010E94E80BC851085E1F4FC931B6
S11319A0B0F7A8016C2FC7010E94E80B10929A05AA
S11319B081E023C0DC0156968C9156978F3F19F431
S11319C088E756968C93D7011896ED91FC91199758
S11319D098014C2FC701099510C010929A0581E017
S11319E00CC080919A05882319F0C7010E94DD0B71
S11319F010929A0581E001C080E0CF911F910F9170
S1131A00FF90EF900895FC0171836083FB012289AC
S1131A10FC01248B0895CF93DF93EC01EA85FB85C9
S1131A2020E030E040E068E20995EE81FF8120E0AB
S1131A3030E040E064E1CE01099541E06BE4CE0181
S1131A400E943F0EE881F981448169E2CE010E943F
S1131A503F0E40E06BE4CE010E943F0EE881F98125
S1131A60448169E2CE010E943F0E41E06BE4CE0165
S1131A700E943F0EE881F981458169E2CE010E940E
S1131A803F0EDF91CF9108950F931F93CF93DF9370
S1131A9000D000D01F92CDB7DEB76C834D832B836B
S1131AA01A830983DC011496ED91FC9115979E012C
S1131AB02F5F3F4F41E06FE009950F900F900F901B
S1131AC00F900F90DF91CF911F910F910895DC013A
S1131AD01496ED91FC91159720E030E040E069E028
S1131AE009950895DC011496ED91FC91159720E079
S1131AF030E040E06AE009950895462FDC01149631
S1131B00ED91FC91159720E030E06BE00995089584
S1131B10DC011496ED91FC91159720E030E040E053
S1131B2060E109950895EF92FF920F931F93CF936D
S1131B30DF938C01C42F79016D30B9F018F46B3048
S1131B4031F072C06E3069F16F30D1F16DC0411166
S1131B5006C061E371E00E943C0C81E066C06CE267
S1131B6071E00E943C0C81E060C041110DC065E24F
S1131B7071E00E943C0CD801ED91FC91119782898F
S1131B8054968C9381E051C06EE171E00E943C0C4C
S1131B90D801ED91FC911197838954968C9381E03F
S1131BA044C00E94260C61E8C8010E94060C6C2FF8
S1131BB0C8010E94110CC8010E94310C81E035C09B
S1131BC00E94260CF701D381DD0FDD0FDD0FD80154
S1131BD054968C91D80F60E4C8010E94060C6D2FB6
S1131BE062956F706061C8010E94060C6D2F6F7062
S1131BF0C8010E94110CF7016481606BC8010E9446
S1131C00110CD70112966C9112974D915C91660F4D
S1131C10660F660FC8010E941C0CC15091F7C801E1
S1131C200E94310C81E001C080E0DF91CF911F91CF
S1131C300F91FF90EF9008950F931F93CF938C0112
S1131C40C62F0E94930D811115C0C93061F0CA30AE
S1131C5091F4C8010E940B0D66E371E0C8010E9473
S1131C603C0C81E008C066E071E0C8010E94030DED
S1131C7081E001C081E0CF911F910F910895DC01B3
S1131C801A96ED91FC911B9720E030E00995089598
S1131C9080E00895FC011182108288E49EE095831F
S1131CA08483978386839187808793878287158A25
S1131CB0108E14861586168617868FEF868B828F74
S1131CC00895AF92BF92CF92DF92EF92FF920F935B
S1131CD01F93CF93DF93EC015B016A0179010E94AA
S1131CE04A0EBD82AC82DF82CE82F986E8861B87EB
S1131CF00A87CE010E94670DDF91CF911F910F914A
S1131D00FF90EF90DF90CF90BF90AF900895109226
S1131D10B90088E48093B80008950F931F9394EA60
S1131D209093BC004FEF50E060E070E002C0B90156
S1131D30A8019091BC00992354F08A019B010150A1
S1131D40110921093109452B462B472B81F7909125
S1131D50B900987F983011F0903109F78093BB0057
S1131D6094E89093BC004FEF50E060E070E002C054
S1131D70B901A8019091BC00992354F08A019B01F8
S1131D800150110921093109452B462B472B81F7B5
S1131D909091B900987F903211F09835C9F494E984
S1131DA09093BC004FEF50E060E070E002C0B901D6
S1131DB0A8019091BC0094FFB2CF8A019B0101500D
S1131DC0110921093109452B462B472B81F7A7CF50
S1131DD01F910F91089584E98093BC008FEF90E0E8
S1131DE0A0E0B0E002C0DB01CA012091BC0024FFE6
S1131DF00AC0AC01BD014150510961097109892B27
S1131E008A2B8B2B81F708958093BB0084E8809301
S1131E10BC008FEF90E0A0E0B0E002C0DB01CA019B
S1131E202091BC00222364F0AC01BD014150510952
S1131E3061097109892B8A2B8B2B81F7DB01CA017C
S1131E40892B8A2B8B2B39F08091B900887F8832BB
S1131E5021F081E0089581E0089580E008950F93D2
S1131E601F93CF936831F9F028F46431C1F06731DE
S1131E7081F004C06931E9F06032F9F080E01EC0FD
S1131E8089010F5F1F4FF90180810E94040F4C2FBD
S1131E909801CFEFC40F4111F3CF81E00FC00E942E
S1131EA0870E81E00BC0FC0186890E948D0E81E0C3
S1131EB005C00E94EB0E81E001C081E0CF911F912B
S1131EC00F9108956A3211F118F4693261F104C076
S1131ED06B3221F06C3269F180E00895242F30E0F8
S1131EE0A4E6B0E00E94561328EF30E040E050E052
S1131EF00E9434132332F8F4822F0197F1F781E022
S1131F00089595E39A95F1F70000482F8FEF840F19
S1131F104111F7CF81E00895EFE9FFE03197F1F740
S1131F2000C00000482F8FEF840F4111F5CF81E0EE
S1131F30089581E0089581E0089567B570E080E038
S1131F4090E00E943B1220E030E048EF51E40E9410
S1131F50911120E030E048EC52E40E94C712089549
S1131F604F925F926F927F928F929F92AF92BF92A5
S1131F70CF92DF92EF92FF920F931F93CF93DF9351
S1131F80CDB7DEB72A970FB6F894DEBF0FBECDBF2C
S1131F906D837E838F8398874A878BE995E00E94BF
S1131FA0060468E670E08BE995E00E9469088BE915
S1131FB095E00E9452088BE995E00E9461082A8509
S1131FC0622F70E080E090E00E943B129B01AC0124
S1131FD060E070E080E093E40E9491116B017C0169
S1131FE019867CC08985682E712CB301072C000CDE
S1131FF0880B990B0E943B129B01AC01C701B601EF
S11320000E94C7124B015C01B3016F5F7F4F072E23
S1132010000C880B990B0E943B129B01AC01C70179
S1132020B6010E94C71269837A838B839C83C5019E
S1132030B4010E940A120CE310E09B014EE150E04F
S11320408BE995E00E94B80920E030E040E85FE3C6
S1132050C501B4010E9425114B015C012D813E8113
S11320604F815885C701B6010E94C71220E030E0B5
S113207048EC52E40E9491119B01AC01C501B401EA
S11320800E9425110E940A122B013C01C501B401D2
S11320900E940A120EE110E092014EE150E08BE939
S11320A095E00E94B8090CE310E092014EE150E083
S11320B0B2018BE995E00E94B80969817A818B812C
S11320C09C810E940A129B014CE350E0B2018BE90F
S11320D095E00E94B80999859F5F998729858A852B
S11320E0281708F47FCF8BE995E00E941C042A96F8
S11320F00FB6F894DEBF0FBECDBFDF91CF911F9115
S11321000F91FF90EF90DF90CF90BF90AF909F9092
S11321108F907F906F905F904F900895CF93DF934F
S1132120CDB7DEB764970FB6F894DEBF0FBECDBF50
S113213022E63FE04FE25FE060E071E08BE995E08A
S11321400E942D0488E78093B1058BE995E00E94F5
S1132150720D60E08BE995E00E947D0D0E94AD0355
S11321600E940A110E94B8030E9415110E949D0F3B
S11321706B017C010E940312DC01CB014AE0BE0129
S11321806F5F7F4F0E946C1345E0C701B6010E9448
S1132190B00F2BE631E04AE050E06FE070E08BE9ED
S11321A095E00E94040820E831E040E050E060E05F
S11321B070E08BE995E00E9404082CE831E040E0EF
S11321C050E067E370E08BE995E00E9404089E010B
S11321D02F5F3F4F40E050E06EE670E08BE995E002
S11321E00E94040828E931E040E050E06CE770E028
S11321F08BE995E00E9404088BE995E00E941C0499
S11322002FEF81EE94E0215080409040E1F700C030
S11322100000A8CF8AB180648AB914BC86E085BD69
S113222084B5836884BD17BC0895BC0180E090E048
S11322300E94391220E030E04FEF5CE30E94C712A5
S11322400E940A1267BD08955058BB27AA270E940E
S11322503C110C948D120E947F1238F00E94861259
S113226020F039F49F3F19F426F40C947C120EF4F8
S1132270E095E7FB0C947612E92F0E949E1258F326
S1132280BA17620773078407950720F079F4A6F557
S11322900C94C0120EF4E0950B2EBA2FA02D0B0156
S11322A0B90190010C01CA01A0011124FF27591B97
S11322B099F0593F50F4503E68F11A16F040A22F9D
S11322C0232F342F4427585FF3CF4695379527950E
S11322D0A795F0405395C9F77EF41F16BA0B620B0D
S11322E0730B840BBAF09150A1F0FF0FBB1F661F54
S11322F0771F881FC2F70EC0BA0F621F731F841F97
S113230048F4879577956795B795F7959E3F08F0BC
S1132310B0CF9395880F08F09927EE0F979587957E
S113232008950E94A5110C948D120E94861258F0F3
S11323300E947F1240F029F45F3F29F00C9476123A
S113234051110C94C1120C947C120E949E1268F3D9
S11323509923B1F3552391F3951B550BBB27AA275A
S113236062177307840738F09F5F5F4F220F331F94
S1132370441FAA1FA9F335D00E2E3AF0E0E832D05C
S113238091505040E695001CCAF72BD0FE2F29D05F
S1132390660F771F881FBB1F261737074807AB0731
S11323A0B0E809F0BB0B802DBF01FF2793585F4FA6
S11323B03AF09E3F510578F00C9476120C94C112B9
S11323C05F3FE4F3983ED4F3869577956795B79588
S11323D0F7959F5FC9F7880F911D9695879597F993
S11323E00895E1E0660F771F881FBB1F621773070C
S11323F08407BA0720F0621B730B840BBA0BEE1F21
S113240088F7E09508950E940A126894B1110C941B
S1132410C11208950E94A61288F09F5798F0B92F10
S11324209927B751B0F0E1F0660F771F881F991F05
S11324301AF0BA95C9F714C0B13091F00E94C012D5
S1132440B1E008950C94C012672F782F8827B85FE5
S113245039F0B93FCCF3869577956795B395D9F75D
S11324603EF490958095709561957F4F8F4F9F4F67
S11324700895E89409C097FB3EF490958095709573
S113248061957F4F8F4F9F4F9923A9F0F92F96E9BC
S1132490BB279395F695879577956795B795F11131
S11324A0F8CFFAF4BB0F11F460FF1BC06F5F7F4FCE
S11324B08F4F9F4F16C0882311F096E911C07723E0
S11324C021F09EE8872F762F05C0662371F096E8E9
S11324D0862F70E060E02AF09A95660F771F881FB8
S11324E0DAF7880F9695879597F9089597F99F6776
S11324F080E870E060E008959FEF80EC0895002488
S11325000A941616170618060906089500240A9454
S113251012161306140605060895092E0394000CDA
S113252011F4882352F0BB0F40F4BF2B11F460FF69
S113253004C06F5F7F4F8F4F9F4F089557FD905892
S1132540440F551F59F05F3F71F04795880F97FB73
S1132550991F61F09F3F79F087950895121613062D
S11325601406551FF2CF4695F1DF08C0161617065C
S11325701806991FF1CF8695710561050894089591
S1132580E894BB2766277727CB0197F908950E9423
S1132590DA120C948D120E947F1238F00E94861277
S11325A020F0952311F00C9476120C947C121124D3
S11325B00C94C1120E949E1270F3959FC1F3950F63
S11325C050E0551F629FF001729FBB27F00DB11DB3
S11325D0639FAA27F00DB11DAA1F649F6627B00D43
S11325E0A11D661F829F2227B00DA11D621F739F2C
S11325F0B00DA11D621F839FA00D611D221F749F3A
S11326003327A00D611D231F849F600D211D822F80
S1132610762F6A2F11249F5750409AF0F1F08823A7
S11326204AF0EE0FFF1FBB1F661F771F881F9150D4
S11326305040A9F79E3F510580F00C9476120C94FB
S1132640C1125F3FE4F3983ED4F38695779567957E
S1132650B795F795E7959F5FC1F7FE2B880F911DFE
S11326609695879597F90895A1E21A2EAA1BBB1B8C
S1132670FD010DC0AA1FBB1FEE1FFF1FA217B3074A
S1132680E407F50720F0A21BB30BE40BF50B661F60
S1132690771F881F991F1A9469F760957095809524
S11326A090959B01AC01BD01CF010895A29FB0019B
S11326B0B39FC001A39F700D811D1124911DB29F72
S11326C0700D811D1124911D0895DC0101C06D93CD
S11326D041505040E0F70895BB274A3031F4992324
S11326E022F4BDE2909581959F4F0C947813BB27FB
S11326F0FB015527AA27880F991FAA1FA41710F0BA
S1132700A41B83955051B9F7A05DAA3308F0A95DC5
S1132710A193009779F7B111B1931192CB010C9465
S11327209113DC01FC01672F71917723E1F7329754
S113273004C07C916D9370836291AE17BF07C8F398
S10927400895F894FFCF98
S1132746F40A440B570B0001140A64643232001273
S11327567A0000042896100800008000400018152E
S1132766A015C019FF1815A115C819FF1815AE191B
S1132776FF1815AF19FF1815AE15D5168015A8162E
S11327863F15D316001540158D1614152016001581
S1132796A115C815DA1612158116CF15D916F11515
S11327A6DB1640152E15A415A619FF54696D653A56
S11327B620302E3235206D696C6C692D736563008B
S11327C6463A20332E39206B487A200044757479B2
S10D27D6204379636C653A00250086
S9030000FC
