S012000050574D204472617765722E7372656399
S11300000C9471080C948E080C948E080C948E0831
S11300100C948E080C948E080C948E080C948E0804
S11300200C948E080C948E080C948E080C948E08F4
S11300300C948E080C948E080C948E080C948E08E4
S11300400C948E080C948E080C948E080C948E08D4
S11300500C948E080C948E080C948E080C948E08C4
S11300600C948E080C948E08BF0203020304010250
S113007004060C00FE07FE08FF017B031609AA20F4
S113008007E6F8F94F00210AE6F8C9697730A700B6
S1130090220CE6F8E1244BB224E71300230FE6F820
S11300A019936890922C890629C909240EE6F8F15F
S11300B0704A3A8E49A7318700250DE6F889522205
S11300C0859D94488701260EE6F8A961922561A5CD
S11300D0295372182709E6F8F1B4CE3700280DE643
S11300E0F829611AA6E534CE1100290CE6F8E16A74
S11300F09C16D330C7002A0EE6F8C959521AC329F0
S1130100A9E514002B0AE6F8596B8396E60C2C0932
S1130110E6F8F92E6A3A062D09E6F87919746E00A4
S11301202E09E6F8F92EEA14002F0BE6F859C2342A
S1130130AC86390D300AE6F8C95AD4BFE90431094E
S1130140E6F8C9A1DA7127320CE6F8A95396868D30
S1130150830E03330DE6F889831A867292453B01B8
S1130160340DE6F8E9A19644A5414C7302350DE639
S1130170F88983920E719A64D14E360DE6F8C95A05
S1130180980E519664D14E370CE6F889831AA6610D
S11301905AA700380EE6F8A9539664D1942559B4A9
S11301A013390EE6F8A9539664D19086994E013A14
S11301B00BE6F8B9893A26EA14003B0BE6F8B9894C
S11301C03A266A3A063C09E6F899C3729D0C3D0A40
S11301D0E6F8390DFAA033023E09E6F819E3629D08
S11301E0053F0CE6F8A95316567330A700400DE6F8
S11301F0F8A95396244B9725DE094110E6F8A95334
S11302009664C9A064499664390C420DE6F88943A2
S113021016356D51CB9013430BE6F8A95396A46D94
S1130220D14E440BE6F8894316F52F434E450EE6AE
S1130230F8898392A64394A6830E03460DE6F889B3
S11302408392A64394D66900470DE6F8A95396A471
S113025025258B76024811E6F889599225593228CA
S1130260599225590E034909E6F8A963DA71274A18
S11302700BE6F8C963DA54D329004B0FE6F8895921
S113028012553231C9A25A0E034C0AE6F88969AFF5
S1130290830E034D0FE6F8895962E9966449966422
S11302A0390C4E10E6F88959922552D249C9922C3C
S11302B087014F0FE6F8A95396644996644916EDF1
S11302C004500EE6F889439425593244699D065139
S11302D00FE6F8A9539664499674CA941C06521002
S11302E0E6F8894394255932444916D57218530DBA
S11302F0E6F8A95396C47392453B01540AE6F8897B
S11303008396F64E015510E6F8895992255992259F
S11303105992453B015610E6F88959922559924560
S11303204996843905570FE6F8895992255992253B
S11303307D4A72025810E6F889599245495889B2A3
S113034024CB6100590DE6F8895992454998B65372
S1130350005A0BE6F889831A761D74185B0AE6F8CE
S1130360E12DEDEB8E005C0BE6F889711A57E31C66
S1130370065D09E6F8E1B5DF76045E0BE6F8F130D8
S113038089B29C2F005F08E6F8F9B741016008E6DE
S1130390F8E1763E01610DE6F8B9CDD19064D190D3
S11303A0C300620FE6F889693A445992255932E448
S11303B004630BE6F8B94D599266D14E6410E6F821
S11303C059D26848B2244BB268C86100650BE6F89C
S11303D0B94D593244F14E660BE6F8C95A541CD350
S11303E03A09670EE6F8B94D5992255934A4D10457
S11303F06810E6F889693A445992255992E5300023
S1130400690AE6F8C939A636EE046A0BE6F85972A9
S11304104CED5493006B0EE6F889692D89A22DAA40
S1130420E530006C09E6F8A96A8F3B016D0BE6F82C
S1130430392951D2FF0E036E0EE6F83925929464E1
S1130440499664390C6F0CE6F8B94D59922559B4A4
S113045013700FE6F8390D51966449960C519A02BF
S1130460710EE6F8B90D49966449160D6905720CCA
S1130470E6F839259294A4751A00730BE6F8B90DC1
S1130480493C27434E740CE6F8C9693668695987B4
S113049001750EE6F839654996644964C9610076C8
S11304A00EE6F839654996645112E61400770CE6B5
S11304B0F839654996F429C909780DE6F839655182
S11304C01256A22C8701790DE6F8396549966451D4
S11304D012B6027A0BE6F8390D62E3A0C3007B0C76
S11304E0E6F829615A8CD3728E007C09E6F8F1B4DF
S11304F0BF43007D0BE6F8E16A394C8B39067E0A6E
S1130500E6F8B94549A79C15A007E6F8F94F00A1FC
S11305100AE6F8C9399876A700A20DE6F859C32966
S1130520E99694C61C02A30DE6F8C95A541CD328B4
S1130530497402A40FE6F83925A524CAA2244AEA7C
S11305403000A50FE6F88959944483960D5A9A53BE
S113055000A60BE6F8C9691D4CEB1400A70CE6F8DD
S1130560F129D6A23639DA09A808E6F8E124E70F1A
S1130570A910E6F8A943124A89124989980C390C42
S1130580AA0BE6F8112D097568E70DAB0EE6F839EC
S113059026511225611226390CAC09E6F87919D4D2
S11305A03A15AD08E6F879DA3902AE10E6F8A9434F
S11305B0122A964889C464C86100AF09E6F8D1419B
S11305C0E76700B00AE6F8112D6AD3F904B10DE625
S11305D0F8C9693668690E0D3A0CB20BE6B8C22444
S11305E00DC39D4F00B30AE678E430CE74BE01B467
S11305F009E6F829619D8F00B50EE6F8396549963C
S11306006449A42CD514B612E6F8E121599225596F
S113061022254BB2244B7218B708E6F839DA3902AE
S1130620B808E6F8F97BA601B909E6B842B5B8F30B
S113063009BA0BE6B8C224CCB19D4F00BB0EE6F854
S113064039256112265112253905BC0EE67842B5CA
S113065025D4926C08D39C00BD0DE67842B5254C98
S1130660D2B0BAC300BE0FE638E430CE94504BB2D9
S1130670214C7302BF0BE6F8C9399886B56827C0C8
S113068012E678E21C9BB2244B06254BB224CB61C4
S113069000C112E6F8C21C9BB2244B06254BB224BF
S11306A0CB6100C212E6B8C22487A62CC99241C904
S11306B0922CC97218C313E678948A0E4D59922568
S11306C08392255992E53000C412E6F8931C9AB23D
S11306D0244B06254BB224CB6100C512E6B8C224D4
S11306E00CA72CC99241C9922CC97218C610E6F8FD
S11306F0A943524BB2214AB2244B7618C70DE6F8EF
S1130700A95396A46DD19A6900C80FE678E21C1A21
S113071094341DA2341D7418C90FE6F8C21C1A942F
S1130720341DA2341D7418CA10E6B8C22447062525
S11307304D87284D071D06CB0FE6F8931C199434FA
S11307401DA2341D7418CC0BE678E21C1BD38E3B1F
S113075001CD0BE6F8C21C1BD38E3B01CE0BE6B8D1
S1130760C22487C6B4E34ECF0BE6F8931C1AD38E8B
S11307703B01D00CE6F8A95BD4B2449D7602D112B9
S1130780E678948A8E644996484927254BB21C061C
S1130790D210E678E21C9BB2244BB2244BB26827F9
S11307A0D310E6F8C21C9BB2244BB2244BB2682788
S11307B0D411E6B8C22487A62CC9922CC9922CDA8B
S11307C009D511E678948A0E4D59922559922559E6
S11307D0B413D610E6F8931C9AB2244BB2244BB24D
S11307E06827D70CE6F8D94A495889B29C0AD80E2A
S11307F0E6F849D11429FD8B144D3908D911E6784E
S1130800E21CCA922CC9922CC9922CDA09DA11E69C
S1130810F8C21CCA922CC9922CC9922CDA09DB1298
S1130820E6B8C22447B2244BB2244BB2248B7602DE
S1130830DC11E6F8931CC9922CC9922CC9922CDACB
S113084009DD0EE6F8C21CCA922C4AC2B49D02DE2F
S11308500CE6F8A9E916F5B4E52400DF0EE6F8A9DC
S1130860539644952CAA25894EE00EE6F8E13A36D3
S113087047439245430E03E10FE6F829618ECDD13B
S11308809064D190C300E20FE6F8F130C9A1391A9F
S1130890922C1A7218E310E6F861A5A2437334246B
S11308A05934E43000E40FE6F8A9490ECDD1906440
S11308B0D190C300E50FE6F8F13009C3391A922C40
S11308C01A7218E60DE6F8B98D493425E190C30093
S11308D0E70DE6F8B94D599266D19A6900E80DE63C
S11308E0F8E13A3665C910C53B01E90DE6F829611E
S11308F08E4D593244F14EEA0EE6F8F130C9A12981
S11309004B8628DE09EB0DE6F8A9490E4D59324411
S1130910F14EEC0AE6F8E13AA636EE04ED0BE6F801
S113092029618EA98D3B01EE0BE6F8F130C921B5A2
S11309307127EF0BE6F8A9490EA98D3B01F010E6EB
S1130940F893B012474392255992453B01F111E6C1
S1130950F861A5A223892425599225590E03F20D85
S1130960E6F8E13A3665499664D14EF30EE6F82985
S1130970618E4D59922559B413F40FE6F8F130C93C
S1130980A1294BB2248B7602F50FE6F861A5A243A8
S11309905396644916ED04F60EE6F8A9490E4D592E
S11309A0922559B413F70BE6F8597368D0A19C014A
S11309B0F80DE6F8B90D49A4B448C99013F90EE648
S11309C0F8E13A942559922559B413FA0FE6F82917
S11309D0610E654996644916ED04FB10E6F8F130A2
S11309E0C9912CC9922CC9A29D00FC0FE6F8A94913
S11309F08E644996644916ED04FD0FE6F829610EEC
S1130A00654996645112B602FE10E6F889693A44C3
S1130A10599225593244690AFF0FE6F8A9498E64B0
S1130A204996645112B60200000004FFFF0000BFA3
S1130A300002020304030404050800FF06FF060085
S1130A40011A023106962005007E03210731633323
S1130A50520022079B6E93AC00230D3D6257A634CF
S1130A60543554991200240A3D629B57BD53DA1140
S1130A702508AB6613536700260A3C621753B36A12
S1130A80A6002705196F332807B262A79A0129081F
S1130A90B2621353A5002A0A2C6213931A49C500A3
S1130AA02B0A2D629B511C32A3082C079B5EA74A7C
S1130AB0002D060C6A33022E079B5E9756022F0800
S1130AC034625FB633003008B36257B92A00310785
S1130AD0B36297646B320A3462A7624E2A8F003382
S1130AE00A34623362D4482605340A34621B55350D
S1130AF0624E00350A346233F446322900360A3431
S1130B0062A7F28A322900370A34623372CC314741
S1130B1000380A3462A76252512605390A3462A7A2
S1130B20A24C3B29003A07AA6233E2083B08B35EB1
S1130B30672355023C07B3629BCA5C3D081C6633BD
S1130B40321A013E08B36293CB54023F09B362D711
S1130B504C192600400C455E2BA35C4925594305DE
S1130B6041093462A7A21C5306420A3462B3E24824
S1130B70518E0443093462A7A22E930244093462BD
S1130B80B3A27324004509346233F4CA79044609D4
S1130B90346233F4CA3500470A3462A7A24E3329BB
S1130BA0004809346213E59866004907B362B362EA
S1130BB06B4A09346237735546004B093462135546
S1130BC092A9334C08346293BB47004D0934621335
S1130BD0C711CD004E09346213D75867004F09344A
S1130BE062A7A2332900500A3462B3A21C29670009
S1130BF051093C5EA7A25C6E14520A3462B3A21C73
S1130C0029CA00530A3462A762CAA84C0A5408B31A
S1130C1062B362170055083462133D9302560934D7
S1130C2062139D492A005709346213CD71C40058D8
S1130C300A34621365922ACA00590B35629375AA65
S1130C4033CA28025A09346233726C8F005B07B3CB
S1130C50623362735C0A34629333CA28A31C5D074F
S1130C60B362339B235E069372D7005F060C5E3338
S1130C70026006927213036108246237A24C036275
S1130C800A346293F38A7224006307A36237B300C1
S1130C90640934625F8D28D30065082462A7D2C832
S1130CA00A660934625B9533470067092C5EA762C4
S1130CB0DA49016809346293F38A66006908B36209
S1130CC09791AC066A09BB5E9B61A92A006B093443
S1130CD06293CB91A20C6C07B36223BB066D09250A
S1130CE062A35A2AA9026E072462B3A2196F0824C8
S1130CF062A7A24C0A70092C5EB3E248390371085A
S1130D002C5E3762DA057208246293929D017307A0
S1130D10A36237F202740A346297E3CC2926007581
S1130D2007246213CD347607A36293AC0A770925AE
S1130D30629355525D007808246213935431790A02
S1130D402C5E13651A3129007A0824623362390251
S1130D507B0B3C62AB324A1AC58C047C053163734D
S1130D607D0C3C62A351CC48659424007E07147228
S1130D70975402A005007E03A1073163934600A2A5
S1130D8009345E1B476ACE04A30A34625B8D9893D0
S1130D904A00A40A2D6293D34C71E500A50B356279
S1130DA0935335641C3202A6063963B306A70A3C82
S1130DB06237F28A698F04A8068B769302A90A35F2
S1130DC062B7AA3955B500AA07AB6AB7921EAB0839
S1130DD01C6697544C01AC069B62330BAD058B6AC1
S1130DE033AE093562F7A1965A00AF058B7633B05E
S1130DF0069B6ED705B108AB6297564603B207ABA4
S1130E006AD74C69B307AB6AA32F00B4069272A7E2
S1130E1000B5092C5E13CD913200B60C356237460D
S1130E201A29A998620AB705096B13B806925EA736
S1130E3000B907AB6A976435BA07AB6AD78D06BBAE
S1130E40081C6693625209BC0A3C62935B518D98FC
S1130E5000BD0A3C6293ABA4728C03BE0C3C62934B
S1130E6051CC4855232600BF09B36297618AA90271
S1130E70C00A3C62975154714C19C1093C625BAB86
S1130E8038A60CC20A3C62A76252714C19C30A3CD0
S1130E9062975454714C19C40A3C62133354714C14
S1130EA019C50A3C62A76252714C19C609346237EB
S1130EB0526BA84AC70A3C5EA7A22E938C00C80AAC
S1130EC03C6297511A7AE511C9093C625B0EBDF286
S1130ED008CA0A3C62A7E2D82B8F00CB0A3C6213F3
S1130EE0331A7AE511CC09BB6293D38AD500CD09B4
S1130EF0BB629BD28AD500CE09BB62578D14AB016D
S1130F00CF09BB6293F28AD500D00B356237E34830
S1130F10658A6901D10A3C629754B9D49401D20A12
S1130F203C62975154D14C0AD3093C625BAB6826AE
S1130F3005D40A3C62A76252D14C0AD50A3C629796
S1130F405454D14C0AD60A3C62133354D14C0AD7B8
S1130F50069B62933AD809346237D2918E04D90938
S1130F603C629751E94C0ADA083C62DB742605DBE3
S1130F70093C62A7A2675200DC0A3C6213338ACEA2
S1130F80A400DD0B3D625FE65467945104DE0A342D
S1130F9062935794236500DF093462A7A2EA5409D7
S1130FA0E00A3C629751C623CA34E1093C625B53B0
S1130FB023CA34E20A3C625B6538A24C03E30A3C70
S1130FC0629754C623CA34E409346257C311651ABC
S1130FD0E50A3C62A7629223CA34E609256233A279
S1130FE0324700E708AB5E37B34A00E80B3C629730
S1130FF051C62A8DAC00E90A3C625B532A8DAC00D1
S1131000EA0B3C62A762862A8DAC00EB0A34625775
S11310104395465600EC09BB62933392D500ED0923
S1131020BB629B3292D500EE08BB62D796D500EF27
S113103008B36293B2AC06F00C3C62936295511A09
S1131040312900F10A3C629754862B9A01F20B3C39
S1131050629751C62ACAA400F30A3C625B532ACAA7
S1131060A400F40B3C62A762862ACAA400F50B3CD8
S1131070629754C62ACAA400F60A34621333545140
S11310802605F708AB6297D14609F809246237D2DE
S1131090482301F90A3C62975186D14C03FA093C72
S11310A0625BE368A601FB0A3C62A76246D14C037B
S11310B0FC09346213338A661AFD0B445E5BE32831
S11310C0D3884901FE0A3C5E93F38A23E50CFF0CA6
S11310D03C5E13338A328D98140000000004FFFF35
S11310E0000011241FBECFEFD8E0DEBFCDBF11E05A
S11310F0A0E0B1E0ECEFF1E302C005900D92A83757
S1131100B107D9F725E0A8E7B1E001C01D92A93FD6
S1131110B207E1F70E9445150C94FC180C940000EA
S11311200F931F93DC01ED91FC9111972089929606
S11311300D911C919397629FB0011124660F771F44
S1131140660F771F660F771F060F171F60E00E9458
S11311500E121F910F910895EF92FF920F931F9318
S1131160CF93DF938C01DC019496FC909497959631
S1131170DC919597ED91FC91E188C0E04D2F6C2FA7
S1131180C8010E949008CF5FDF5FCF1510F4DE1511
S1131190A8F3DF91CF911F910F91FF90EF900895E5
S11311A0FC01A081B18150969C9144A1949FA0011F
S11311B01124440F551F440F551F440F551F60E061
S11311C070E082A193A10E948F180895CF93DF93BA
S11311D0EC010E94AC08CE010E945212DF91CF9123
S11311E0089528E0FC01208388E791E00895CF92D8
S11311F0DF92EF92FF920F931F93CF93DF931F928F
S1131200CDB7DEB77C016B0189019A0145E551E157
S113121066EE72E10E942B13CE0101960E94F10842
S113122086012EE03FE04981BC01C7010E944210C3
S11312300F90DF91CF911F910F91FF90EF90DF906E
S1131240CF900895860F911DFC0184910895FC01AF
S1131250E60FF11D849190E03196982F8827E49150
S11312608E0F911D089580E090E0089580599F4F5E
S1131270FC018081082E000C990B019608950F93B0
S11312801F93CF93DF93EC018B0160E0C8010E94B0
S11312902209888361E0C8010E942209898362E0EF
S11312A0C8010E9422098A8363E0C8010E942209BE
S11312B08B8364E0C8010E9422098C8365E0C80125
S11312C00E9422098D8366E0C8010E9422098E8350
S11312D067E0C8010E9422098F8368E0C8010E9468
S11312E02209888769E0C8010E94220989876AE087
S11312F0C8010E9422098A876BE0C8010E94220962
S11313008B876CE0C8010E9422098C876DE0C801BC
S11313100E9422098D876EE0C8010E9422098E87EF
S11313206FE0C8010E9422098F8760E1C8010E9412
S11313302209888B61E1C8010E9427099A8B898B55
S113134063E1C8010E9427099C8B8B8B65E1C8016E
S11313500E9427099E8B8D8BDF91CF911F910F9156
S11313600895DC011A964C911A97ED91FC9111970E
S1131370249130E0042E02C0359527950A94E2F7B3
S1131380822F942F960F983080F088E0841B31963A
S11313901196FC93EE93E491F0E002C0EE0FFF1F70
S11313A08A95E2F78E2F822B985021E030E002C01C
S11313B0220F331F6A95E2F721501A969C938223D9
S11313C008950F931F93CF93DF93EC018C01085B77
S11313D01F4FF80171836083128673966081C80180
S11313E00E94B109F801808774966081C8010E9447
S11313F0B109F8018187BC968081F801848791E066
S1131400811190E0C85BDF4F9D87DF91CF911F91E1
S11314100F910895CF93C62F0E94B109C15021E0C6
S113142030E002C0220F331FCA95E2F7821BCF912E
S11314300895213049F018F0223059F00FC0840F7C
S1131440911D47FD9A950895860F911D67FD9A9504
S11314500895841B910947FD93950895861B91096E
S113146067FD93950895213049F018F0223059F022
S11314700FC0860F911D67FD9A950895841B9109ED
S113148047FD93950895861B910967FD93950895EB
S1131490840F911D47FD9A9508956F927F928F92C4
S11314A09F92AF92BF92CF92DF92EF92FF920F93EF
S11314B01F93CF93DF937C01162F742EFC01E85BFE
S11314C0FF4F9680D781F701E85BFF4FC085C919AC
S11314D01C1710F06C2E01C0612EF701E85BFF4F62
S11314E0C480D58006858D2E202F4D2F692D8281B5
S11314F093810E94330A5C01202F4D2F692DC60170
S11315000E94190A772071F0F701E85BFF4F2485E8
S1131510BC962083262D30E0AC01B501C7010E94A2
S11315208B0D10C0F701E85BFF4F238521110AC022
S11315302585BC962083262D30E0AC01B501C7017A
S11315400E948B0D1C1720F01C1BDF5F912CBBCF5E
S1131550612F690DF701E85BFF4F66838782DF9196
S1131560CF911F910F91FF90EF90DF90CF90BF909C
S1131570AF909F908F907F906F9008956F927F921D
S11315808F929F92AF92BF92CF92DF92EF92FF928F
S11315900F931F93CF93DF93EC017C0188E4E80E53
S11315A0F11CCE010E94E109FE01EF5AFF4FC080F9
S11315B03C966081C7010E940A0A782EFE01E25A15
S11315C0FF4F6081C7010E940A0A182FFE01E15AE9
S11315D0FF4F6081C7010E940A0AD82EF701608478
S11315E016140CF09BC006851C0D1195202F412F5D
S11315F0672D828193810E94330A5C01F7019383F2
S11316008283202F412F672D848195810E94190A9E
S1131610F70195838483013089F028F0023001F1C9
S11316200330A1F143C09501260D311D67FC3A95A5
S11316308C010C0D111DC7FC1A953AC0A5014C195B
S11316405109C7FC539595012F5F3F4F8C01060D3F
S1131650111D67FC1A95BA016F5F7F4F5B0128C0AB
S1131660A5014619510967FC539595012F5F3F4F1A
S1131670BC016C197109C7FC73958C010F5F1F4F76
S1131680CB010196FA0131965F0112C095012C0D30
S1131690311DC7FC3A95AC014619510967FC5395B5
S11316A08C010F5F1F4FCA01019602C08C01950186
S11316B0AC01B501CE010E945D0E882379F1FE01D3
S11316C0E85BFF4F16821782FE01E75AFF4F6081E5
S11316D0C7010E94B109082FFE01E65AFF4F60813D
S11316E0C7010E94B109182F40E0602FCE010E946B
S11316F04D0A41E0612FCE010E944D0A61E0C7010D
S11317000E94B1098111F0CFFE01E85BFF4F878190
S11317108C15D4F28485CC58DF4F88838D2DDF91CE
S1131720CF911F910F91FF90EF90DF90CF90BF90DA
S1131730AF909F908F907F906F900895EF92FF925B
S11317400F931F93CF93DF93FC01EC5BFF4FC0819A
S1131750D18167966F3F710509F038F561367105DF
S113176030F0B69680819181C80FD91F0AC06134C8
S1131770710538F0FC01E859FF4F80819181C80F51
S1131780D91FCE010196FC012491222309F43CC007
S1131790FE01249130E06217730711F4019639C0F9
S11317A0FC018491C80FD11DECCF8B01FC01E459DD
S11317B0FF4F80819181C80FD91F7E0160E0C7016E
S11317C00E942709C80FD91F62E0C7010E94270998
S11317D0F4E0EF0EF11C8017910780F3FE01849171
S11317E090E0982F88273196E4918E2B009779F01A
S11317F00817190719F4CE0103960BC0FE0132969F
S1131800E491CE0FD11DEACF80E090E002C080E0E9
S113181090E0DF91CF911F910F91FF90EF90089589
S1131820CF93DF93EC01FC01E65BFF4F7183608390
S1131830329651834083B9010E949E0B009741F078
S1131840BC01CE010E94BE0A082E000C990B02C0F6
S113185080E090E0DF91CF910895CF92DF92EF92F4
S1131860FF920F931F93CF93DF93EC018B017A01C7
S11318706901FC01EA5AFF4F8081813089F028F028
S11318808230C9F0833011F12BC0FE01EA5BFF4FB7
S11318900190F081E02DCE010995E80EF91E20C0DB
S11318A0FE01EA5BFF4F0190F081E02DCE01099526
S11318B0081B190B15C0FE01EA5BFF4F0190F08174
S11318C0E02DCE010995E81AF90A0AC0FE01EA5B87
S11318D0FF4F0190F081E02DCE010995080F191FEB
S11318E09601A701B801CE010E94100CDF91CF919F
S11318F01F910F91FF90EF90DF90CF900895AF92DA
S1131900BF92CF92DF92EF92FF920F931F93CF93E8
S1131910DF93EC015B016A0189010E947F10E12CD5
S1131920F12CEA81FB81D8016C91CE0109958F3F9E
S1131930BFEF9B0739F10F5F1F4F8E3F2FEF9207C9
S113194081F39C01A601B501CE010E942D0C9C01DE
S1131950FE01EA5AFF4F9081913049F028F092300D
S113196049F0933051F00BC0A20EB31E08C0C20E52
S1131970D31E05C0A21AB30A02C0C21AD30AE20EC9
S1131980F31ECFCFC701DF91CF911F910F91FF902D
S1131990EF90DF90CF90BF90AF900895E2E7F0E131
S11319A0DC011396FC93EE9312970E947F0C08952A
S11319B0FC01EC5BFF4F20813181232BE1F1B096D8
S11319C020813C9620833B9740813C96408332970C
S11319D03081332381F1313079F439973081231701
S11319E014F43A963083FC01E959FF4F20812417FF
S11319F014F53A9620830895022E000C330BFC0153
S1131A00EF59FF4FE081DC01AD59BF4F5C91652F69
S1131A10052E000C770B6E0F711DE7FD7A952617C6
S1131A2037071CF41D96E50FEC93541724F4FC01BE
S1131A30EF58FF4F50830895FC01E159FF4F108286
S1131A400E94D80C08958A5B9F4F23E339E0FC0180
S1131A503183208308958A5B9F4F26E339E0FC019C
S1131A60318320830895CF93DF93FC01EC5BFF4F18
S1131A70208131812617370751F0EC01718360838F
S1131A80895A9F4F0E943F09CE010E94D80CDF91D2
S1131A90CF910895CF93DF93EC01A881B981EB0135
S1131AA0E881F981EA0FFB1FEA17FB0738F4A21754
S1131AB0B30718F4F901319701C0DA01A217B3078B
S1131AC0A8F44E175F07A0F4A417B50708F0AD01FA
S1131AD02E173F0708F09F01FC0151834083241B0C
S1131AE0350BEB013983288381E003C080E001C01A
S1131AF080E0DF91CF9108950F93DC019A96ED91E8
S1131B00FC919B974E1B5F0B5E96ED91FC915F974A
S1131B1009950F910895EF92FF920F931F93CF931E
S1131B20DF9300D000D000D0CDB7DEB77A836983CD
S1131B305C834B833E832D83FC01E259FF4F20815C
S1131B40222309F474C02D813E812115310509F445
S1131B506EC022303105B0F0023041F4621B730BC9
S1131B609B012F5F3F4F3A8329830CC0033051F40C
S1131B704B815C81DA01A21BB30B9D012F5F3F4FA8
S1131B803C832B837C01102F117000FD1DC0FC01D0
S1131B9020AD31AD8B819C818217930708F447C037
S1131BA022AD33AD8217930708F041C026A937A9A7
S1131BB044A955A9BE016B5F7F4FCE0101960E94D7
S1131BC04A0D811123C033C0DC01D4962D913C9180
S1131BD0D59789819A818217930748F1D6962D91DA
S1131BE03C91D7978217930710F5DA962D913C9183
S1131BF0DB97D8964D915C91D997BE016B5F7F4F6F
S1131C00CE0103960E944A0D882389F0D70190964D
S1131C10ED91FC9191970480F581E02D2D813E8119
S1131C204B815C8169817A81012FC70109952696D0
S1131C300FB6F894DEBF0FBECDBFDF91CF911F91D9
S1131C400F91FF90EF9008950F93FC0180AD91AD3B
S1131C5048175907A8F082AD93AD4817590780F487
S1131C6084A995A96817790758F086A997A96817D0
S1131C70790730F4CF0100E021E030E00E948B0DC1
S1131C800F9108954617570740F48217930768F099
S1131C902417350760F481E008958217930748F408
S1131CA02417350740F481E0089581E0089580E029
S1131CB0089580E0089580E00895CF92DF92EF9236
S1131CC0FF920F931F93CF93DF93EC017B01690184
S1131CD098016AAD7BAD88AD99AD0E94420E882310
S1131CE041F06EA97FA99601A7018CA99DA90E9424
S1131CF0420EDF91CF911F910F91FF90EF90DF90F3
S1131D00CF9008953F924F925F926F927F928F92FD
S1131D109F92AF92BF92CF92DF92EF92FF920F9376
S1131D201F93CF93DF933C01EB016A0159012617FE
S1131D30370720F44B01821A930A03C04901861A1B
S1131D40970A0C151D0520F42601401A510A03C0F8
S1131D5028014C185D088414950438F0942D852DC1
S1131D602401892E982E312C0CC09A2D8B2D5801CC
S1131D70092F182F9C2F8D2FE601C92ED82E33241E
S1131D803394AC16BD0650F49C2D8D2D6801092F9B
S1131D90182F9C2F8D2FE501A92EB82E7201F694D1
S1131DA0E794C016D10618F401E010E002C00FEF6A
S1131DB01FEF8FEFA816B806E1F481E0A81AB10866
S1131DC018C0311006C0A601BE01C3010E94240E32
S1131DD005C0AE01B601C3010E94240EC7018819D3
S1131DE099097C012AF4C00ED11E7201E80EF91E75
S1131DF02196AC16BD0628F7DF91CF911F910F9164
S1131E00FF90EF90DF90CF90BF90AF909F908F9016
S1131E107F906F905F904F903F9008950F931F9322
S1131E20CF93DF93DC01CA01542F5770C1E0D0E097
S1131E30052E02C0CC0FDD1F0A94E2F71C2FFD0112
S1131E40EC58FF4FE081E23010F040E001C04C2F2D
S1131E50E13009F410E0887FED91FC911197C0897D
S1131E60C89FF001C99FF00D112492968D919C9109
S1131E7093976E0F7F1FFC01E60FF71F011108C037
S1131E808081842B8127819321503109C9F721C096
S1131E909081942B912790835F5F57702150310973
S1131EA0511110C096968D919C919797E80FF91F48
S1131EB0ED01CC58DF4F8881823008F441E0813055
S1131EC021F404C0440F110F01C011E021153105A4
S1131ED0F9F6DF91CF911F910F910895CF93DF937E
S1131EE0FC01A081B18184A190E09C01220F331FE9
S1131EF0220F331F220F331F31A720A750962C9196
S1131F00509730E0220F331F220F331F220F331F4D
S1131F1037A326A375A1272F30E0A901440F551F2D
S1131F20440F551F440F551F53A742A7280F391FAD
S1131F3051966C915197C62FD0E0C217D30718F46D
S1131F40CE01871B9109880F991F880F991F880F4D
S1131F50991F55A744A7840F951F97A786A7549642
S1131F608D919C91559791AB80AB56968D919C9198
S1131F70579793AB82ABDF91CF9108950E946E0F78
S1131F8008950F931F93CF93DF93EC01FC01EE5B55
S1131F90FF4F008111812EAD3FAD329740815181B9
S1131FA06CAD7DAD0E945D0E811104C0C259DF4F3E
S1131FB018822FC081E0FE01E259FF4F80832CA9D3
S1131FC03DA98CAD9DAD2817390710F49DAB8CABA2
S1131FD02EA93FA98EAD9FAD8217930710F49FAB36
S1131FE08EAB28AD39ADFE01E05CFF4F808191815D
S1131FF02817390710F499AF88AF2AAD3BADFE011D
S1132000EE5BFF4F808191818217930710F49BAFA1
S11320108AAFDF91CF911F910F910895FC0115AA0A
S113202014AA80A991A997AB86AB84A595A591AF75
S113203080AF86A597A593AF82AFCF010E94C10F51
S113204008950F930E947C0D0F910895DC01DD9695
S11320501C921E92DC97FC01E05CFF4F11821082FF
S11320602FEF3FEFFC0137AF26AFEE5BFF4F31831D
S113207020839096ED91FC9191970280F381E02D5D
S1132080099508950F931F93CF93DF93EC01FC01FF
S1132090EC5BFF4F118210823F8F2E8F7BA36AA3CC
S11320A04CA31DA23F961082B096108234971082E2
S11320B0359681E080833196808319A308A3D801E3
S11320C0ED91FC91CE010995CE010E942610CE011E
S11320D00E94230DCA5ADF4F1882DF91CF911F91BE
S11320E00F910895662329F06A3031F0862F90E02D
S11320F008958FEF9FEF08958FEF9FEF0895FC01F0
S1132100108E08959A01DC011896ED91FC911997AF
S1132110462F67E109950895CF93DF931F92CDB7BA
S1132120DEB76983AE014F5F5F4F61E00E948210AA
S11321300F90DF91CF910895DC011896ED91FC91F9
S1132140199720E030E040E068E109950895DC014A
S11321501896ED91FC91199720E030E040E069E198
S113216009950895EF92FF921F93CF93DF93EC01AB
S1132170162F7A010E949C1060E4CE010E948C10FC
S1132180E885F9859701412F67E1CE010995CE01D4
S11321900E94A710DF91CF911F91FF90EF900895B7
S11321A0462FDC011696ED91FC91179720E030E064
S11321B065E109950895462FDC011696ED91FC9191
S11321C0179720E030E066E1099508959A01DC0153
S11321D01696ED91FC911797462F67E1099508959E
S11321E0DC011696ED91FC91179720E030E040E079
S11321F068E109950895DC011696ED91FC91179715
S113220020E030E040E069E109950895EF92FF9203
S11322100F931F93CF93DF931F92CDB7DEB77C014B
S11322208B01D8016D918D016731B9F018F46531D6
S113223030F433C06A31E8F06E3F31F12EC0FD0155
S113224041918F014983D7011696ED91FC9117971F
S113225020E030E0C7010995E4CFFD0181918F01B1
S11322608983AE014F5F5F4F61E0C7010E94E610B2
S1132270D8CFD7011696ED91FC91179720E030E066
S113228040E0C7010995CDCFFD0141918F014983FC
S113229069E2C7010E940913C4CF0F90DF91CF9167
S11322A01F910F91FF90EF900895EF92FF920F937B
S11322B01F93CF937C01C42F8901663129F130F437
S11322C0643109F441C0653149F060C0683109F4F2
S11322D04EC0F8F0693109F44EC058C080917805B9
S11322E0882319F0C7010E94A710C7010E949C10FF
S11322F060E0C7010E948C106C2FC7010E948C10F3
S113230081E08093780543C0642F0E948C1081E0A3
S11323103EC080917805882361F0C7010E94A71010
S113232008C0A80168E1C7010E94B210C851085E44
S11323301F4FC931B0F7A8016C2FC7010E94B2101A
S11323401092780581E023C0DC0156968C91569753
S11323508F3F19F488E756968C93D7011896ED9120
S1132360FC91199798014C2FC701099510C0109240
S1132370780581E00CC080917805882319F0C701A5
S11323800E94A7101092780581E001C080E0CF91EF
S11323901F910F91FF90EF900895FC01718360836A
S11323A0FB012289FC01248B0895CF93DF93EC0178
S11323B0EA85FB8520E030E040E068E20995EE81A3
S11323C0FF8120E030E040E064E1CE01099541E086
S11323D06BE4CE010E940913E881F981448169E22A
S11323E0CE010E94091340E06BE4CE010E94091360
S11323F0E881F981448169E2CE010E94091341E038
S11324006BE4CE010E940913E881F981458169E2F8
S1132410CE010E940913DF91CF9108950F931F936A
S1132420CF93DF9300D000D01F92CDB7DEB76C837B
S11324304D832B831A830983DC011496ED91FC915F
S113244015979E012F5F3F4F41E06FE009950F9074
S11324500F900F900F900F90DF91CF911F910F91DC
S11324600895DC011496ED91FC91159720E030E07D
S113247040E069E009950895DC011496ED91FC9122
S1132480159720E030E040E06AE009950895462F72
S1132490DC011496ED91FC91159720E030E06BE09F
S11324A009950895DC011496ED91FC91159720E0AF
S11324B030E040E060E109950895EF92FF920F93B8
S11324C01F93CF93DF938C01C42F79016D30B9F042
S11324D018F46B3031F072C06E3069F16F30D1F1A5
S11324E06DC0411106C061E371E00E94061181E0F4
S11324F066C06CE271E00E94061181E060C0411187
S11325000DC065E271E00E940611D801ED91FC91C5
S11325101197828954968C9381E051C06EE171E0E9
S11325200E940611D801ED91FC911197838954966C
S11325308C9381E044C00E94F01061E8C8010E94BD
S1132540D0106C2FC8010E94DB10C8010E94FB1040
S113255081E035C00E94F010F701D381DD0FDD0F5B
S1132560DD0FD80154968C91D80F60E4C8010E9405
S1132570D0106D2F62956F706061C8010E94D010F9
S11325806D2F6F70C8010E94DB10F7016481606BCE
S1132590C8010E94DB10D70112966C9112974D91DD
S11325A05C91660F660F660FC8010E94E610C15069
S11325B091F7C8010E94FB1081E001C080E0DF9127
S11325C0CF911F910F91FF90EF9008950F931F9358
S11325D0CF938C01C62F0E945D12811115C0C930A2
S11325E061F0CA3091F4C8010E94D51166E371E02C
S11325F0C8010E94061181E008C066E071E0C801CC
S11326000E94CD1181E001C081E0CF911F910F9113
S11326100895DC011A96ED91FC911B9720E030E0BF
S11326200995089580E00895FC011182108282E1E9
S113263093E19583848397838683918780879387A7
S11326408287158A108E14861586168617868FEF54
S1132650868B828F0895AF92BF92CF92DF92EF92D2
S1132660FF920F931F93CF93DF93EC015B016A01F9
S113267079010E941413BD82AC82DF82CE82F98676
S1132680E8861B870A87CE010E943112DF91CF9121
S11326901F910F91FF90EF90DF90CF90BF90AF907C
S11326A008951092B90088E48093B80008950F93B8
S11326B01F9394EA9093BC004FEF50E060E070E009
S11326C002C0B901A8019091BC00992354F08A0179
S11326D09B010150110921093109452B462B472B38
S11326E081F79091B900987F983011F0903109F7F3
S11326F08093BB0094E89093BC004FEF50E060E0FF
S113270070E002C0B901A8019091BC00992354F073
S11327108A019B010150110921093109452B462BDE
S1132720472B81F79091B900987F903211F098353A
S1132730C9F494E99093BC004FEF50E060E070E07E
S113274002C0B901A8019091BC0094FFB2CF8A01E4
S11327509B010150110921093109452B462B472BB7
S113276081F7A7CF1F910F91089584E98093BC004E
S11327708FEF90E0A0E0B0E002C0DB01CA0120913D
S1132780BC0024FF0AC0AC01BD01415051096109DC
S11327907109892B8A2B8B2B81F708958093BB00B9
S11327A084E88093BC008FEF90E0A0E0B0E002C02A
S11327B0DB01CA012091BC00222364F0AC01BD01FD
S11327C04150510961097109892B8A2B8B2B81F79F
S11327D0DB01CA01892B8A2B8B2B39F08091B9003C
S11327E0887F883221F081E0089581E0089580E0B7
S11327F008950F931F93CF936831F9F028F464314F
S1132800C1F0673181F004C06931E9F06032F9F058
S113281080E01EC089010F5F1F4FF90180810E9473
S1132820CE134C2F9801CFEFC40F4111F3CF81E0A9
S11328300FC00E94511381E00BC0FC0186890E94E5
S1132840571381E005C00E94B51381E001C081E007
S1132850CF911F910F9108956A3211F118F46932E2
S113286061F104C06B3221F06C3269F180E00895AB
S1132870242F30E0A4E6B0E00E94801828EF30E076
S113288040E050E00E943F182332F8F4822F019771
S1132890F1F781E0089595E39A95F1F70000482F48
S11328A08FEF840F4111F7CF81E00895EFE9FFE046
S11328B03197F1F700C00000482F8FEF840F4111CA
S11328C0F5CF81E0089581E0089581E008954F9265
S11328D05F926F927F928F929F92AF92BF92CF92AC
S11328E0DF92EF92FF920F931F93CF93DF93CDB7B5
S11328F0DEB72A970FB6F894DEBF0FBECDBF6D8347
S11329007E838F8398874A878DE795E00E94D0085D
S11329106FE27AE08DE795E00E94330D8DE795E054
S11329200E941C0D8DE795E00E942B0D2A85622FD5
S113293070E080E090E00E9446179B01AC0160E0EB
S113294070E080E093E40E949C166B017C01198680
S11329507CC08985682E712CB301072C000C880B70
S1132960990B0E9446179B01AC01C701B6010E9456
S1132970D2174B015C01B3016F5F7F4F072E000C30
S1132980880B990B0E9446179B01AC01C701B60145
S11329900E94D21769837A838B839C83C501B40117
S11329A00E9415170CE310E09B014EE150E08DE707
S11329B095E00E94820E20E030E040E85FE3C5012C
S11329C0B4010E9430164B015C012D813E814F8180
S11329D05885C701B6010E94D21720E030E048ECC8
S11329E052E40E949C169B01AC01C501B4010E94F3
S11329F030160E9415172B013C01C501B4010E9439
S1132A0015170EE110E092014EE150E08DE795E0DC
S1132A100E94820E0CE310E092014EE150E0B201FC
S1132A208DE795E00E94820E69817A818B819C8179
S1132A300E9415179B014CE350E0B2018DE795E02D
S1132A400E94820E99859F5F998729858A85281718
S1132A5008F47FCF8DE795E00E94E6082A960FB62A
S1132A60F894DEBF0FBECDBFDF91CF911F910F91C0
S1132A70FF90EF90DF90CF90BF90AF909F908F909A
S1132A807F906F905F904F900895CF93DF93CDB771
S1132A90DEB76F970FB6F894DEBF0FBECDBF2CE242
S1132AA034E149EF53E160E071E08DE795E00E9485
S1132AB0F70888E7809393058DE795E00E943C1220
S1132AC060E08DE795E00E9447128DE795E00E9453
S1132AD0D00868E670E08DE795E00E94330D8DE73D
S1132AE095E00E941C0D8DE795E00E942B0D8FEF61
S1132AF08BB910928000109285001092840080E2BD
S1132B0086BB83E480938100B59BFECF80918600D1
S1132B109091870020E226BB23E020938100B59B9F
S1132B20FECF609186007091870020E226BB23E4EB
S1132B3020938100B59BFECFC0908600D090870083
S1132B4020E226BB8B01081B190BC81AD90AE12CF9
S1132B50F12C60E074E284EF90E0A70196010E94FA
S1132B60611849015A01B80180E090E00E944417BD
S1132B702B013C01C701B6010E9444179B01AC0123
S1132B80C301B2010E949C1620E030E048EC52E4FC
S1132B900E94D2172B013C010E940E17DC01CB01CD
S1132BA04AE0BE01615F7F4F0E9496182AE0AE01A1
S1132BB04F5F5F4FC501B4010E94A1182AE0AE0126
S1132BC04A5E5F4FC701B6010E94A11845E0C301E8
S1132BD0B2010E9467142BE631E040E050E060E06F
S1132BE070E08DE795E00E94CE0C2FE631E040E0E6
S1132BF050E06BE470E08DE795E00E94CE0C24E792
S1132C0031E04AE050E060E070E08DE795E00E943A
S1132C10CE0C9E01215F3F4F40E050E06FE570E035
S1132C208DE795E00E94CE0C9E012F5F3F4F40E060
S1132C3050E06FE070E08DE795E00E94CE0C9E01BD
S1132C402A5E3F4F4AE050E06FE070E08DE795E088
S1132C500E94CE0C8DE795E00E94E6084ACF5058BA
S1132C60BB27AA270E9447160C9498170E948A171C
S1132C7038F00E94911720F039F49F3F19F426F49C
S1132C800C9487170EF4E095E7FB0C948117E92F59
S1132C900E94A91758F3BA176207730784079507A8
S1132CA020F079F4A6F50C94CB170EF4E0950B2ED6
S1132CB0BA2FA02D0B01B90190010C01CA01A0018A
S1132CC01124FF27591B99F0593F50F4503E68F1E5
S1132CD01A16F040A22F232F342F4427585FF3CF26
S1132CE0469537952795A795F0405395C9F77EF4F7
S1132CF01F16BA0B620B730B840BBAF09150A1F040
S1132D00FF0FBB1F661F771F881FC2F70EC0BA0FC5
S1132D10621F731F841F48F4879577956795B7954D
S1132D20F7959E3F08F0B0CF9395880F08F0992748
S1132D30EE0F9795879508950E94B0160C949817F6
S1132D400E94911758F00E948A1740F029F45F3FBF
S1132D5029F00C94811751110C94CC170C948717FB
S1132D600E94A91768F39923B1F3552391F3951B96
S1132D70550BBB27AA2762177307840738F09F5F98
S1132D805F4F220F331F441FAA1FA9F335D00E2E05
S1132D903AF0E0E832D091505040E695001CCAF772
S1132DA02BD0FE2F29D0660F771F881FBB1F261735
S1132DB037074807AB07B0E809F0BB0B802DBF010C
S1132DC0FF2793585F4F3AF09E3F510578F00C94DB
S1132DD081170C94CC175F3FE4F3983ED4F38695A7
S1132DE077956795B795F7959F5FC9F7880F911DFC
S1132DF09695879597F90895E1E0660F771F881FE8
S1132E00BB1F621773078407BA0720F0621B730B9A
S1132E10840BBA0BEE1F88F7E09508950E941517EE
S1132E206894B1110C94CC1708950E94B11788F0DE
S1132E309F5798F0B92F9927B751B0F0E1F0660F7A
S1132E40771F881F991F1AF0BA95C9F714C0B130BB
S1132E5091F00E94CB17B1E008950C94CB17672F23
S1132E60782F8827B85F39F0B93FCCF386957795EA
S1132E706795B395D9F73EF49095809570956195D3
S1132E807F4F8F4F9F4F0895E89409C097FB3EF4FE
S1132E9090958095709561957F4F8F4F9F4F9923A3
S1132EA0A9F0F92F96E9BB279395F6958795779521
S1132EB06795B795F111F8CFFAF4BB0F11F460FFE1
S1132EC01BC06F5F7F4F8F4F9F4F16C0882311F039
S1132ED096E911C0772321F09EE8872F762F05C04D
S1132EE0662371F096E8862F70E060E02AF09A95E8
S1132EF0660F771F881FDAF7880F9695879597F9DD
S1132F00089597F99F6780E870E060E008959FEF67
S1132F1080EC089500240A9416161706180609066C
S1132F20089500240A94121613061406050608953B
S1132F30092E0394000C11F4882352F0BB0F40F4C3
S1132F40BF2B11F460FF04C06F5F7F4F8F4F9F4F03
S1132F50089557FD9058440F551F59F05F3F71F085
S1132F604795880F97FB991F61F09F3F79F08795EC
S1132F700895121613061406551FF2CF4695F1DF75
S1132F8008C0161617061806991FF1CF8695710505
S1132F90610508940895E894BB2766277727CB0139
S1132FA097F908950E94E5170C9498170E948A17C0
S1132FB038F00E94911720F0952311F00C9481179A
S1132FC00C94871711240C94CC170E94A91770F342
S1132FD0959FC1F3950F50E0551F629FF001729FBA
S1132FE0BB27F00DB11D639FAA27F00DB11DAA1FC9
S1132FF0649F6627B00DA11D661F829F2227B00D16
S1133000A11D621F739FB00DA11D621F839FA00DA0
S1133010611D221F749F3327A00D611D231F849FF0
S1133020600D211D822F762F6A2F11249F57504047
S11330309AF0F1F088234AF0EE0FFF1FBB1F661FC2
S1133040771F881F91505040A9F79E3F510580F08B
S11330500C9481170C94CC175F3FE4F3983ED4F39F
S1133060869577956795B795F795E7959F5FC1F72F
S1133070FE2B880F911D9695879597F90895A1E2E7
S11330801A2EAA1BBB1BFD010DC0AA1FBB1FEE1FDE
S1133090FF1FA217B307E407F50720F0A21BB30B29
S11330A0E40BF50B661F771F881F991F1A9469F7A5
S11330B060957095809590959B01AC01BD01CF0101
S11330C00895052E97FB1EF400940E94781857FD6E
S11330D007D00E943F1807FC03D04EF40C947818D4
S11330E050954095309521953F4F4F4F5F4F089530
S11330F090958095709561957F4F8F4F9F4F089560
S1133100A29FB001B39FC001A39F700D811D112424
S1133110911DB29F700D811D1124911D0895DC0134
S113312001C06D9341505040E0F70895BB274A30E9
S113313031F4992322F4BDE2909581959F4F0C942C
S1133140D318BB272A3051F4992342F4BDE2909559
S11331508095709561957F4F8F4F9F4F0C94B11858
S1133160BB27FA01A62F6217710581059105330B60
S113317030FB66F0AA27660F771F881F991FAA1FC6
S1133180A21710F0A21B63953850A9F7A05DAA33CB
S113319008F0A95DA19336F7B111B1931082CA0169
S11331A00C94EC18BB27FB015527AA27880F991FFD
S11331B0AA1FA41710F0A41B83955051B9F7A05D62
S11331C0AA3308F0A95DA193009779F7B111B193DF
S11331D01192CB010C94EC18DC01FC01672F719166
S11331E07723E1F7329704C07C916D9370836291E9
S10F31F0AE17BF07C8F30895F894FFCF92
S11331FCBE0F0E1021100001140A64643232001246
S113320C7A0000042896100800008000400018156D
S113321CA015C019FF1815A115C819FF1815AE195A
S113322CFF1815AF19FF1815AE15D5168015A8166D
S113323C3F15D316001540158D16141520160015C0
S113324CA115C815DA1612158116CF15D916F11554
S113325CDB1640152E15A415A619FF463A2000447A
S10B326C433A2000503A20000F
S9030000FC
